:100000000C944E000C946D000C946D000C946D00DB
:100010000C946D000C946D000C946D000C946D00AC
:100020000C946D000C946D000C946D000C946D009C
:100030000C946D000C9400010C946D000C946D00F8
:100040000C946D000C946D000C946D000C946D007C
:100050000C946D000C946D000C946D000C946D006C
:100060000C946D000C946D000C946D000C946D005C
:100070000C946D000C946D000C946D000C946D004C
:100080000C946D000C946D000C946D0079067E0646
:10009000830688068D06920697069C0611241FBECD
:1000A000CFEFD0E4DEBFCDBF11E0A0E0B1E0E2EEE3
:1000B000FDE000E00BBF02C007900D92AC31B1072C
:1000C000D9F721E0ACE1B1E001C01D92A133B20744
:1000D000E1F70E9419030C94EF060C940000CF93F3
:1000E000DF9300D01F92CDB7DEB789837B836A830D
:1000F00089818A3031F48A819B81BC018DE00E9424
:100100006F0080EC90E0FC018081882F90E080728D
:100110009927892BB1F386EC90E02981FC0120839B
:1001200080E090E00F900F900F90DF91CF910895B5
:10013000CF93DF93CDB7DEB78CE790E02CE730E0CC
:10014000F90120812064FC0120838AE790E02AE7FE
:1001500030E0F90120812568FC0120830000DF9157
:10016000CF910895CF93DF93CDB7DEB781E890E0CC
:100170002BE0FC01208388E890E02DE730E0FC01D3
:10018000318320838FE690E022E0FC01208384E825
:1001900090E0FC011182108280910E0190910F017C
:1001A000A0911001B091110180931D0190931E0147
:1001B000A0931F01B09320018FE590E02FE530E080
:1001C000F90120812068FC0120830000DF91CF919C
:1001D0000895CF93DF93CDB7DEB781E890E0FC01BF
:1001E00010820000DF91CF910895CF93DF93CDB7B8
:1001F000DEB781E080931C010000DF91CF9108956C
:100200001F920F9200905F000F92112400905B00EC
:100210000F922F933F934F935F936F937F938F939F
:100220009F93AF93BF93EF93FF93CF93DF93CDB79C
:10023000DEB780911D0190911E01A0911F01B09128
:1002400020010197A109B10980931D0190931E011E
:10025000A0931F01B093200180911D0190911E0178
:10026000A0911F01B0912001892B8A2B8B2B91F437
:100270000E94F50080910E0190910F01A091100154
:10028000B091110180931D0190931E01A0931F0155
:10029000B09320010000DF91CF91FF91EF91BF91CA
:1002A000AF919F918F917F916F915F914F913F910E
:1002B0002F910F9000925B000F9000925F000F90C3
:1002C0001F901895CF93DF9300D000D0CDB7DEB745
:1002D00069837A838B839C8389819A81AB81BC817A
:1002E00080930E0190930F01A0931001B093110120
:1002F00080910E0190910F01A0911001B091110118
:1003000080931D0190931E01A0931F01B0932001C3
:1003100000000F900F900F900F90DF91CF910895F4
:10032000CF93DF9300D000D0CDB7DEB78CE790E05D
:100330002CE730E0F90120812E7FFC0120838AE741
:1003400090E02AE730E0F90120812064FC0120835D
:1003500000008AE790E0FC018081882F90E08074A3
:100360009927892BB1F788E790E0FC018081918182
:100370009A8389838AE790E02AE730E0F9012081B7
:100380002F7BFC0120838CE790E021E0FC0120839F
:100390008AE790E02AE730E0F90120812064FC013F
:1003A000208300008AE790E0FC018081882F90E0A4
:1003B00080749927892BB1F788E790E0FC01808150
:1003C00091819C838B8380912501909126010097D8
:1003D00019F0019741F00EC081E090E09093260162
:1003E0008093250107C081E090E0909326018093DF
:1003F000250100008091250190912601009719F0B8
:10040000019751F034C010922101109222011092F4
:100410002301109224012BC089819A81099720F42D
:1004200081E08093210102C01092210189819A818B
:10043000803F934020F081E08093220102C010921F
:1004400022018B819C81099720F481E08093240113
:1004500002C0109224018B819C81803F934020F048
:1004600081E08093230102C010922301000000006C
:100470000F900F900F900F90DF91CF910895CF9331
:10048000DF93CDB7DEB780912701909128018130AD
:10049000910571F08130910520F0069708F042C077
:1004A0003AC081E090E090932801809327013BC0FF
:1004B00080912101882339F082E090E09093280117
:1004C0008093270130C080912201882339F083E096
:1004D00090E0909328018093270125C0809123010B
:1004E000882339F084E090E09093280180932701DD
:1004F0001AC080912401882339F085E090E0909320
:100500002801809327010FC081E090E0909328019B
:100510008093270108C081E090E0909328018093A8
:10052000270101C0000080912701909128018230AD
:10053000910599F08330910538F4009709F463C070
:10054000019709F462C062C08430910501F18430E2
:10055000910580F00597C9F159C08091120140E0E2
:10056000682F80E00E94D603809112018F5F8093F4
:1005700012014CC08091120140E0682F80E00E947F
:10058000D603809112018150809312013FC0809167
:1005900012018F5F40E0682F80E00E94D6038091B7
:1005A00012018F5F40E0682F80E00E94D6038091A7
:1005B0001201815040E0682F80E00E94D6038091B4
:1005C00013018F5F8093130121C0809112018F5F0F
:1005D00040E0682F80E00E94D603809112018F5F77
:1005E00040E0682F80E00E94D60380911201815084
:1005F00040E0682F80E00E94D60380911301815073
:100600008093130103C0000001C00000809113011A
:10061000882F90E08C5E9E4FFC01908180911201AA
:10062000492F682F80E00E94D6030000DF91CF9110
:100630000895CF93DF9300D000D0CDB7DEB78AE224
:1006400090E02FEFFC0120838BE290E0FC01108210
:100650000E9498006AE070E080E090E00E946201F1
:100660000E94B2000E94920410922601109225016D
:10067000109228011092270119821A821B821C8273
:100680000E94900189819A81AB81BC818A3F91054A
:10069000A105B10531F40E943F0219821A821B8222
:1006A0001C8289819A81AB81BC810A96A11DB11DF2
:1006B00089839A83AB83BC83000080911C018823CB
:1006C000E1F310921C01DCCFCF93DF9300D0CDB7C4
:1006D000DEB78A83198219821AC08A81282F30E0F6
:1006E0008981882F90E0220F331F220F331F220FA2
:1006F000331F820F931F875D9E4FFC01108240E0E5
:1007000069818A810E945B0689818F5F89838981E3
:10071000883018F300000F900F90DF91CF9108956B
:10072000CF93DF9300D000D0CDB7DEB78A837C8330
:100730006B8319828A81882389F519822CC08A816A
:10074000282F30E08981882F90E04981442F50E0A4
:100750006B817C81460F571FFA014081220F331FA6
:10076000220F331F220F331F820F931F875D9E4F6F
:10077000FC0140838981882F90E02B813C81820F8E
:10078000931FFC018081482F69818A810E945B064A
:1007900089818F5F89838981883088F200000F907A
:1007A0000F900F900F90DF91CF910895CF93DF932B
:1007B00000D01F92CDB7DEB789836A834B838981CE
:1007C0008823D9F48A818830C0F48981282F30E0C9
:1007D0008A81882F90E0220F331F220F331F220FB0
:1007E000331F820F931F875D9E4F2B81FC01208357
:1007F0004B816A8189810E945B0600000F900F90F7
:100800000F90DF91CF910895CF93DF9300D000D068
:100810001F92CDB7DEB78B836C834D838C81803480
:1008200008F042C08C8187708A838B81282F30E04A
:100830008A81882F90E0220F331F220F331F220F4F
:10084000331F820F931F875D9E4FFC018081898338
:100850008D81882391F08C81869586958695282FA9
:1008600030E081E090E002C0880F991F2A95E2F7FE
:10087000982F8981892B898312C08C8186958695D2
:100880008695282F30E081E090E002C0880F991F04
:100890002A95E2F7982F9095898189238983498148
:1008A0006A818B810E94D60300000F900F900F90F9
:1008B0000F900F90DF91CF910895CF93DF9300D0E9
:1008C000CDB7DEB789836A8341E06A8189810E945E
:1008D000040400000F900F90DF91CF910895CF9303
:1008E000DF9300D0CDB7DEB789836A8340E06A81A9
:1008F00089810E94040400000F900F90DF91CF9136
:100900000895CF93DF9300D0CDB7DEB789836A8394
:100910006A8189810E94770500000F900F90DF9116
:10092000CF910895CF93DF9300D0CDB7DEB70E946B
:10093000A806198219821DC01A821A82000061E07D
:1009400089810E945F0560E089810E948C0560E0DA
:1009500089810E94B9056FE089810E94770567E06F
:1009600089810E94A40589810E94640389818F5F27
:1009700089838981882301F300000F900F90DF9114
:10098000CF910895CF93DF9300D01F92CDB7DEB7FC
:100990008B83198288E0898348C08B81282F30E0BF
:1009A0008981882F90E0AC014150510981E090E0AD
:1009B00002C0880F991F4A95E2F782239323298169
:1009C000222F30E02150310902C0959587952A9554
:1009D000E2F78A8388E290E028E230E0F9012081A2
:1009E0002E7FFC0120838A81882351F088E290E0E9
:1009F00028E230E0F90120812460FC01208309C055
:100A000088E290E028E230E0F90120812B7FFC01B0
:100A1000208388E290E028E230E0F9012081216023
:100A2000FC0120838981815089838981882309F091
:100A3000B4CF00000F900F900F90DF91CF910895E9
:100A4000CF93DF9300D000D0CDB7DEB78A836B831E
:100A50004C8319828A81882351F588E290E028E24C
:100A600030E0F90120812D7FFC0120838A81898378
:100A700000008B810E94C2048C810E94C2041982F2
:100A800009C080E00E94C20480E00E94C204898103
:100A90008F5F898399818A81981798F388E290E023
:100AA00028E230E0F90120812260FC01208300006F
:100AB0000F900F900F900F90DF91CF910895CF93EB
:100AC000DF9300D0CDB7DEB789836A838A8188231C
:100AD00019F08A81813029F44A816CE089810E9471
:100AE000200500000F900F90DF91CF910895CF93D4
:100AF000DF9300D0CDB7DEB789836A838A818031E6
:100B000028F44A816AE089810E94200500000F9044
:100B10000F90DF91CF910895CF93DF9300D0CDB7A1
:100B2000DEB789836A838A81882319F08A818130BC
:100B300029F44A816FE089810E94200500000F900E
:100B40000F90DF91CF910895CF93DF9300D0CDB771
:100B5000DEB789836A838A81883028F44A816BE012
:100B600089810E94200500000F900F90DF91CF91A6
:100B70000895CF93DF9300D0CDB7DEB789836A8322
:100B80004A8169E089810E94200500000F900F9042
:100B9000DF91CF910895CF93DF9300D0CDB7DEB72B
:100BA00089836A834A8161E089810E94200500006F
:100BB0000F900F90DF91CF910895CF93DF9300D0E6
:100BC000CDB7DEB789836A834A8162E089810E945A
:100BD000200500000F900F90DF91CF910895CF93E3
:100BE000DF9300D0CDB7DEB789836A834A8163E0A3
:100BF00089810E94200500000F900F90DF91CF9116
:100C00000895CF93DF9300D0CDB7DEB789836A8391
:100C10004A8164E089810E94200500000F900F90B6
:100C2000DF91CF910895CF93DF9300D0CDB7DEB79A
:100C300089836A834A8165E089810E9420050000DA
:100C40000F900F90DF91CF910895CF93DF9300D055
:100C5000CDB7DEB789836A834A8166E089810E94C5
:100C6000200500000F900F90DF91CF910895CF9352
:100C7000DF9300D0CDB7DEB789836A834A8167E00E
:100C800089810E94200500000F900F90DF91CF9185
:100C90000895CF93DF9300D0CDB7DEB789836A8301
:100CA0004A8168E089810E94200500000F900F9022
:100CB000DF91CF910895CF93DF9300D01F92CDB7EE
:100CC000DEB789836A834B838A81882F90E0092E5F
:100CD000000CAA0BBB0B40E050E027E030E0841B87
:100CE000950B2817390768F18A5B9F4FFC010C941C
:100CF000E6066B8189810E94CB0523C06B818981C7
:100D00000E94DD051EC06B8189810E94EF0519C01C
:100D10006B8189810E94010614C06B8189810E94C8
:100D200013060FC06B8189810E9425060AC06B8162
:100D300089810E94370605C06B8189810E9449061E
:100D4000000000000F900F900F90DF91CF91089559
:100D5000CF93DF93CDB7DEB787E290E027E230E0B4
:100D6000F90120812460FC01208387E290E027E2E2
:100D700030E0F90120812160FC01208387E290E0CE
:100D800027E230E0F90120812260FC01208388E223
:100D900090E028E230E0F90120812B7FFC012083E4
:100DA00088E290E028E230E0F90120812E7FFC010A
:100DB000208388E290E028E230E0F90120812D7F55
:100DC000FC0120830000DF91CF910895EE0FFF1FFB
:100DD0000024001C0BBE0790F691E02D0994F894B6
:020DE000FFCF43
:100DE20000000002000000006F000000000001008F
:0C0DF200000004048040201008040201EE
:00000001FF
