:100000000C943E010C945D010C945D010C945D0117
:100010000C945D010C945D010C945D010C945D01E8
:100020000C945D010C945D010C945D010C945D01D8
:100030000C945D010C9467050C945D010C945D01BA
:100040000C945D010C945D010C945D010C945D01B8
:100050000C945D010C945D010C945D010C945D01A8
:100060000C945D010C945D010C945D010C945D0198
:100070000C945D010C945D010C945D010C945D0188
:100080000C945D010C945D010C945D018F0394034D
:1000900099039E03A303A803AD03B203000000006D
:1000A0000000005F00000007000700147F147F14A9
:1000B000242A7F2A122313086462364955225000ED
:1000C00005030000001C2241000041221C0014080E
:1000D0003E081408083E08080050300000080808D0
:1000E0000808006060000020100804023E514945E5
:1000F0003E00427F400042615149462141454B311B
:100100001814127F1027454545393C4A49493001AA
:10011000710905033649494936064949291E003601
:100120003600000056360000081422410014141452
:100130001414004122140802015109063249794180
:100140003E7E1111117E7F494949363E414141228F
:100150007F4141221C7F494949417F090909013EEC
:100160004149497A7F0808087F00417F41002040CB
:10017000413F017F081422417F404040407F020CF4
:10018000027F7F0408107F3E4141413E7F090909FB
:10019000063E4151215E7F091929464649494931A8
:1001A00001017F01013F4040403F1F2040201F3F91
:1001B0004038403F63140814630708700807615112
:1001C000494543007F41410002040810200041419D
:1001D0007F0004020102044040404040000102044C
:1001E0000020545454787F484444383844444420D0
:1001F000384444487F3854545418087E0901020C8E
:100200005252523E7F0804047800447D4000204052
:10021000443D007F1028440000417F40007C0418CA
:1002200004787C0804047838444444387C1414145A
:1002300008081414187C7C080404084854545420FA
:10024000043F4440203C4040207C1C2040201C3C7B
:100250004030403C44281028440C5050503C4464EA
:10026000544C44000836410000007F000000413635
:1002700008001008081008000000000011241FBE2C
:10028000CFEFD0E4DEBFCDBF11E0A0E0B1E0E0EC05
:10029000FBE100E00BBF02C007900D92AE30B1074A
:1002A000D9F723E0AEE0B1E001C01D92A332B2075E
:1002B000E1F70E9459070C94DE0D0C940000CF93D7
:1002C000DF9300D01F92CDB7DEB78B83198288E011
:1002D000898398C08B81282F30E08981882F90E016
:1002E000AC014150510981E090E002C0880F991F94
:1002F0004A95E2F7822393232981222F30E021506F
:10030000310902C0959587952A95E2F78A8386E29E
:1003100090E0FC018081882F90E09C0121703327C0
:1003200081E090E002C0880F991F2A95E2F7AC01A6
:100330004095509588E290E028E230E0F901208174
:10034000322F242F2323FC0120838A818823E9F084
:1003500086E290E0FC018081882F90E09C0124706F
:10036000332781E090E0AC0102C0440F551F2A956D
:10037000E2F788E290E028E230E0F9012081322FB4
:10038000242F232BFC0120831EC086E290E0FC0179
:100390008081882F90E09C012470332781E090E0D9
:1003A00002C0880F991F2A95E2F7AC01409550953D
:1003B00088E290E028E230E0F9012081322F242FFA
:1003C0002323FC01208386E290E0FC018081882FBA
:1003D00090E09C012170332781E090E0AC0102C0E5
:1003E000440F551F2A95E2F788E290E028E230E0BA
:1003F000F9012081322F242F232BFC0120838981B6
:10040000815089838981882309F064CF00000F908F
:100410000F900F90DF91CF910895CF93DF9300D08D
:1004200000D0CDB7DEB78A836B834C8319828A8173
:10043000882309F052C086E290E0FC018081882F79
:1004400090E09C012270332781E090E002C0880F89
:10045000991F2A95E2F7AC014095509588E290E00B
:1004600028E230E0F9012081322F242F2323FC01E0
:1004700020838A81898300008B810E945F018C81A7
:100480000E945F01198209C080E00E945F0180E044
:100490000E945F0189818F5F898399818A81981782
:1004A00098F386E290E0FC018081882F90E09C0127
:1004B0002270332781E090E0AC0102C0440F551F49
:1004C0002A95E2F788E290E028E230E0F901208105
:1004D000322F242F232BFC01208300000F900F903C
:1004E0000F900F90DF91CF910895CF93DF9300D0BD
:1004F000CDB7DEB789836A838A81882319F08A8120
:10050000813029F44A816CE089810E940D0200004B
:100510000F900F90DF91CF910895CF93DF9300D08C
:10052000CDB7DEB789836A838A81803128F44A8116
:100530006AE089810E940D0200000F900F90DF9108
:10054000CF910895CF93DF9300D0CDB7DEB78983E5
:100550006A838A81882319F08A81813029F44A814B
:100560006FE089810E940D0200000F900F90DF91D3
:10057000CF910895CF93DF9300D0CDB7DEB78983B5
:100580006A838A81883028F44A816BE089810E94DD
:100590000D0200000F900F90DF91CF910895CF933F
:1005A000DF9300D0CDB7DEB789836A834A8169E0E3
:1005B00089810E940D0200000F900F90DF91CF9172
:1005C0000895CF93DF9300D0CDB7DEB789836A83D8
:1005D0004A8161E089810E940D0200000F900F9016
:1005E000DF91CF910895CF93DF9300D0CDB7DEB7E1
:1005F00089836A834A8162E089810E940D0200003A
:100600000F900F90DF91CF910895CF93DF9300D09B
:10061000CDB7DEB789836A834A8163E089810E940E
:100620000D0200000F900F90DF91CF910895CF93AE
:10063000DF9300D0CDB7DEB789836A834A8164E057
:1006400089810E940D0200000F900F90DF91CF91E1
:100650000895CF93DF9300D0CDB7DEB789836A8347
:100660004A8165E089810E940D0200000F900F9081
:10067000DF91CF910895CF93DF9300D0CDB7DEB750
:1006800089836A834A8166E089810E940D020000A5
:100690000F900F90DF91CF910895CF93DF9300D00B
:1006A000CDB7DEB789836A834A8167E089810E947A
:1006B0000D0200000F900F90DF91CF910895CF931E
:1006C000DF9300D0CDB7DEB789836A834A8168E0C3
:1006D00089810E940D0200000F900F90DF91CF9151
:1006E0000895CF93DF9300D01F92CDB7DEB78983F3
:1006F0006A834B838A81882F90E0092E000CAA0B15
:10070000BB0B40E050E027E030E0841B950B28173E
:10071000390768F18A5B9F4FFC010C94BA0C6B811E
:1007200089810E94E10223C06B8189810E94F302CA
:100730001EC06B8189810E94050319C06B8189816C
:100740000E94170314C06B8189810E9429030FC086
:100750006B8189810E943B030AC06B8189810E9461
:100760004D0305C06B8189810E945F03000000007A
:100770000F900F900F90DF91CF910895CF93DF935B
:10078000CDB7DEB786E290E0FC018081882F90E053
:100790009C012470332781E090E0AC0102C0440F3B
:1007A000551F2A95E2F787E290E027E230E0F90151
:1007B0002081322F242F232BFC01208386E290E01E
:1007C000FC018081882F90E09C012170332781E01B
:1007D00090E0AC0102C0440F551F2A95E2F787E272
:1007E00090E027E230E0F9012081322F242F232BE3
:1007F000FC01208386E290E0FC018081882F90E05C
:100800009C012270332781E090E0AC0102C0440FCC
:10081000551F2A95E2F787E290E027E230E0F901E0
:100820002081322F242F232BFC01208386E290E0AD
:10083000FC018081882F90E09C012470332781E0A7
:1008400090E002C0880F991F2A95E2F7AC0140950D
:10085000509588E290E028E230E0F9012081322FC3
:10086000242F2323FC01208386E290E0FC01808179
:10087000882F90E09C012170332781E090E002C036
:10088000880F991F2A95E2F7AC014095509588E2B0
:1008900090E028E230E0F9012081322F242F232339
:1008A000FC01208386E290E0FC018081882F90E0AB
:1008B0009C012270332781E090E002C0880F991FCD
:1008C0002A95E2F7AC014095509588E290E028E245
:1008D00030E0F9012081322F242F2323FC012083D3
:1008E0000000DF91CF910895CF93DF9300D01F9246
:1008F000CDB7DEB789836A834B838B81882319F454
:100900008A81882301F180910F038F5F40E0682F77
:1009100080E00E94C20B80910F03815040E0682F5D
:1009200080E00E94C20B809111038F5F40E0682F2E
:1009300080E00E94C20B80911103815040E0682F3B
:1009400080E00E94C20B89818823C9F080910F0347
:1009500040E0682F80E00E94C20B80910F0381501D
:1009600080930F038091110340E0682F80E00E9484
:10097000C20B809111038150809311031BC08B81A6
:10098000882359F0809110038F5F8093100380912A
:1009900012038F5F809312030DC08A81882351F068
:1009A0008091100381508093100380911203815035
:1009B0008093120380911003882F90E080509F4F06
:1009C000FC01908180910F03492F682F80E00E94E5
:1009D000C20B80911203882F90E080509F4FFC0142
:1009E000908180911103492F682F80E00E94C20BF3
:1009F00000000F900F900F90DF91CF910895CF934B
:100A0000DF93CDB7DEB78CE790E02CE730E0F9015B
:100A100020812064FC0120838AE790E02AE730E00F
:100A2000F90120812568FC0120830000DF91CF912E
:100A30000895CF93DF93CDB7DEB781E890E02BE048
:100A4000FC01208388E890E02DE730E0FC01318351
:100A500020838FE690E022E0FC01208384E890E090
:100A6000FC01118210828091080190910901A091EE
:100A70000A01B0910B0180930F0190931001A09394
:100A80001101B09312018FE590E02FE530E0F901FC
:100A900020812068FC0120830000DF91CF91089520
:100AA000CF93DF93CDB7DEB781E890E0FC011082F1
:100AB0000000DF91CF910895CF93DF93CDB7DEB7DC
:100AC00081E080930E010000DF91CF9108951F9285
:100AD0000F9200905F000F92112400905B000F9224
:100AE0002F933F934F935F936F937F938F939F9336
:100AF000AF93BF93EF93FF93CF93DF93CDB7DEB761
:100B000080910F0190911001A0911101B0911201FB
:100B10000197A109B10980930F0190931001A0934F
:100B20001101B093120180910F0190911001A091D9
:100B30001101B0911201892B8A2B8B2B91F40E9409
:100B40005C058091080190910901A0910A01B09182
:100B50000B0180930F0190931001A0931101B093AA
:100B600012010000DF91CF91FF91EF91BF91AF9102
:100B70009F918F917F916F915F914F913F912F91B5
:100B80000F9000925B000F9000925F000F901F90FB
:100B90001895CF93DF9300D000D0CDB7DEB769832F
:100BA0007A838B839C8389819A81AB81BC8180937A
:100BB000080190930901A0930A01B0930B01809161
:100BC000080190910901A0910A01B0910B01809355
:100BD0000F0190931001A0931101B0931201000036
:100BE0000F900F900F900F90DF91CF910895CF93BA
:100BF000DF9300D0CDB7DEB78CE790E021E0FC01B9
:100C000020838AE790E02AE730E0F9012081206420
:100C1000FC01208300008AE790E0FC018081882F9E
:100C200090E080749927892BB1F788E790E0FC0168
:100C3000808191819A8389838AE790E02AE730E076
:100C4000F90120812F7BFC01208380911303909177
:100C50001403009719F0019741F00EC081E090E075
:100C6000909314038093130307C081E090E0909366
:100C700014038093130300008091130390911403D5
:100C8000009719F0019731F01BC0109213011092D8
:100C9000140116C089819A81099720F481E080931C
:100CA000140102C01092140189819A81803F9340FF
:100CB00020F081E08093130102C010921301000024
:100CC00000000F900F90DF91CF910895CF93DF93A5
:100CD000CDB7DEB78091170390911803813091054D
:100CE00069F08130910518F00297F1F024C081E09D
:100CF00090E090931803809317031DC08091130117
:100D0000882321F480911401882339F082E090E057
:100D100090931803809317030EC081E090E09093A6
:100D200018038093170307C081E090E090931803A5
:100D3000809317030000809117039091180381306E
:100D4000910581F08130910578F0029709F00DC08E
:100D50009091130180911401492F682F80E00E9427
:100D6000740403C0000001C000000000DF91CF91B7
:100D70000895CF93DF93CDB7DEB78091190390919B
:100D80001A03009719F0019741F00EC081E090E03E
:100D900090931A038093190307C081E090E0909329
:100DA0001A038093190300008091190390911A038C
:100DB000009719F0019761F011C010920F03109283
:100DC000110381E08093100382E08093120306C038
:100DD00040E060E081E00E94740400000000DF91C8
:100DE000CF910895CF93DF931F92CDB7DEB7809157
:100DF000150390911603009719F0019741F00EC06A
:100E000081E090E0909316038093150307C081E082
:100E100090E09093160380931503000080911503D2
:100E200090911603009719F0019729F03DC019829F
:100E300010920C0139C08CE790E022E0FC01208385
:100E40008AE790E02AE730E0F90120812064FC0184
:100E5000208300008AE790E0FC018081882F90E0E9
:100E600080749927892BB1F788E790E0FC01808195
:100E7000918189838AE790E02AE730E0F9012081B7
:100E80002F7BFC01208389818F3068F080910C01D9
:100E9000882F90E08170992721E0892B09F020E0CC
:100EA000822F80930C01000000000F90DF91CF9102
:100EB0000895CF93DF93CDB7DEB728970FB6F89498
:100EC000DEBF0FBECDBF8AE290E02FEFFC01208392
:100ED0008BE290E0FC0110820E94FF040E946F08E8
:100EE0000E947E0C0E94D8090E94380B10921403B5
:100EF0001092130310921803109217031092160306
:100F00001092150310921A031092190319821A8273
:100F10001B821C821D821E821F8218866AE070E07E
:100F200080E090E00E94C9050E9419050E94F70523
:100F300089819A81AB81BC818A3F9105A105B10568
:100F400061F480910C01882321F00E9466060E94C2
:100F5000B90619821A821B821C828D819E81AF8103
:100F6000B88586349105A105B10531F40E94F206D9
:100F70001D821E821F82188689819A81AB81BC8165
:100F80000A96A11DB11D89839A83AB83BC838D8191
:100F90009E81AF81B8850A96A11DB11D8D839E8368
:100FA000AF83B887000080910E018823E1F310928F
:100FB0000E01BCCF1F93CF93DF9300D0CDB7DEB728
:100FC00089836A838BE290E02BE230E0F901208193
:100FD0002F7DFC0120838A81882351F08BE290E0F1
:100FE0002BE230E0F90120812860FC01208309C058
:100FF0008BE290E02BE230E0F9012081277FFC01B9
:10100000208310E03CC08981882F90E0212F30E0C0
:1010100047E050E0BA01621B730B9B0102C095953B
:1010200087952A95E2F781709927892B51F08BE2F9
:1010300090E02BE230E0F90120812460FC01208364
:1010400009C08BE290E02BE230E0F90120812B7F98
:10105000FC0120838BE290E02BE230E0F90120815B
:101060002260FC0120838BE290E02BE230E0F9016A
:1010700020812D7FFC012083812F11E0180F183073
:1010800010F28BE290E02BE230E0F9012081206247
:10109000FC01208300000F900F90DF91CF911F91F2
:1010A0000895CF93DF931F92CDB7DEB7898360E0B9
:1010B00089810E94DA0700000F90DF91CF91089597
:1010C000CF93DF931F92CDB7DEB7898361E089812B
:1010D0000E94DA0700000F90DF91CF9108951F93CF
:1010E000CF93DF93CDB7DEB76C970FB6F894DEBF22
:1010F0000FBECDBF8AE290E02AE230E0F901208104
:101100002062FC0120838AE290E02AE230E0F901CB
:1011100020812061FC0120838AE290E02AE230E015
:10112000F90120812860FC0120838AE290E02AE214
:1011300030E0F90120812460FC0120838AE290E004
:101140002AE230E0F90120812260FC0120838BE259
:1011500090E02BE230E0F90120812061FC01208346
:101160008BE290E02BE230E0F90120812062FC016B
:10117000208380E090E0A0E2B1E489839A83AB838E
:10118000BC8320E030E04AE753E469817A818B81B7
:101190009C810E94490DDC01CB018B8B9C8BAD8B1C
:1011A000BE8B20E030E040E85FE36B897C898D896D
:1011B0009E890E94C30C88232CF481E090E0988FD4
:1011C0008F8B3FC020E03FEF4FE757E46B897C896E
:1011D0008D899E890E94440D18164CF520E030E060
:1011E00040E251E469817A818B819C810E94490DA2
:1011F000DC01CB01BC01CD010E94C80CDC01CB019C
:10120000988F8F8B0FC089E190E09A8F898F898D9D
:101210009A8D0197F1F79A8F898F8F89988D019711
:10122000988F8F8B8F89988D892B69F714C06B8964
:101230007C898D899E890E94C80CDC01CB01988F26
:101240008F8B8F89988D9C8F8B8F8B8D9C8D019729
:10125000F1F79C8F8B8F8BE290E02BE230E0F9016D
:1012600020812F7EFC01208380E090E0ACE8B2E496
:101270008D839E83AF83B88720E030E04AE753E454
:101280006D817E818F8198850E94490DDC01CB01A3
:1012900089879A87AB87BC8720E030E040E85FE32E
:1012A00069857A858B859C850E94C30C88232CF4E4
:1012B00081E090E09E878D873FC020E03FEF4FE7C1
:1012C00057E469857A858B859C850E94440D1816A4
:1012D0004CF520E030E040E251E46D817E818F8169
:1012E00098850E94490DDC01CB01BC01CD010E9413
:1012F000C80CDC01CB019E878D870FC089E190E08F
:10130000988B8F878F8598890197F1F7988B8F87B6
:101310008D859E8501979E878D878D859E85892BDE
:1013200069F714C069857A858B859C850E94C80CF5
:10133000DC01CB019E878D878D859E859A8B898B5D
:1013400089899A890197F1F79A8B898B8BE290E0D2
:101350002BE230E0F90120812062FC0120838BE246
:1013600090E02BE230E0F90120812F7DFC01208309
:1013700081E20E94510883E10E94510886E00E94A8
:10138000510882EC0E94510880E20E94510889E0D5
:101390000E94510880E80E94510880E40E94510890
:1013A00010E080E00E946008812F11E0180FF9CF53
:1013B0001F93CF93DF93CDB7DEB780E80E9451082B
:1013C00080E40E94510810920D0310920E0310E069
:1013D000812F90E08B5E9E4FFC011082812F11E0E7
:1013E000180FF6CFCF93DF9300D000D01F92CDB768
:1013F000DEB78B836C834D838C818695869586952D
:10140000882F90E044E5489F9001499F300D1124BA
:101410008B81882F90E0820F931F8B5E9E4F9A8363
:1014200089838D818823C9F089819A81FC0180811B
:10143000482F8C81882F90E09C012770332781E012
:1014400090E002C0880F991F2A95E2F7842B282F7D
:1014500089819A81FC01208319C089819A81FC01CC
:101460008081482F8C81882F90E09C012770332742
:1014700081E090E002C0880F991F2A95E2F78095DD
:101480008423282F89819A81FC01208300000F90FA
:101490000F900F900F900F90DF91CF9108950F93C1
:1014A0001F93CF93DF9300D000D01F92CDB7DEB74C
:1014B0008C836D8310E066C000E04FC08C81082EE5
:1014C000000C990B9C01205231099D81812F692FBD
:1014D0000E94AE0C482F50E0C901880F991F880F59
:1014E000991F820F931F840F951F84569F4F9A83D5
:1014F000898389819A81FC0184918B838B81282F38
:1015000030E09D81802F692F0E94AE0C882F90E0E3
:10151000A90102C0559547958A95E2F7CA018170E5
:101520009927892B61F080910E03982F900F80915D
:101530000D03810F41E0692F0E94F2090BC08091D9
:101540000E03982F900F80910D03810F40E0692FBB
:101550000E94F209802F01E0080F402F50E08D819A
:10156000282F30E0C901880F991F880F991F880F15
:10157000991F821B930B481759070CF49FCF812F9B
:1015800011E0180F412F50E08D81282F30E0C90164
:10159000880F991F880F991F820F931F48175907AB
:1015A0000CF48ACF20910D039D81892F880F880F1D
:1015B000890F820F8F5F80930D0380910D03843517
:1015C00070F010920D0320910E039D81892F880FDA
:1015D000880F880F891B820F8F5F80930E03809185
:1015E0000E03803320F010920D0310920E030000C2
:1015F0000F900F900F900F900F90DF91CF911F9150
:101600000F910895CF93DF9300D01F92CDB7DEB72F
:101610009A8389836B830CC089819A819C012F5F97
:101620003F4F3A832983FC0180816B810E944F0ADE
:1016300089819A81FC018081882371F700000F90D5
:101640000F900F90DF91CF910895CF93DF9300D04B
:10165000CDB7DEB789836A83898180930D038A8140
:1016600080930E0300000F900F90DF91CF910895AB
:101670001F93CF93DF93CDB7DEB780E80E94510868
:1016800080E40E94510810E0812F90E08B5E9E4F15
:10169000FC0180810E946008812F11E0180FF4CFB7
:1016A000CF93DF9300D0CDB7DEB78A83198219823A
:1016B0001AC08A81282F30E08981882F90E0220F7C
:1016C000331F220F331F220F331F820F931F855E9C
:1016D0009C4FFC01108240E069818A810E94710365
:1016E00089818F5F89838981883018F300000F908A
:1016F0000F90DF91CF910895CF93DF9300D000D06A
:10170000CDB7DEB78A837C836B8319828A81882375
:1017100089F519822CC08A81282F30E08981882F91
:1017200090E04981442F50E06B817C81460F571F28
:10173000FA014081220F331F220F331F220F331F64
:10174000820F931F855E9C4FFC0140838981882F07
:1017500090E02B813C81820F931FFC018081482FF8
:1017600069818A810E94710389818F5F8983898160
:10177000883088F200000F900F900F900F90DF914B
:10178000CF910895CF93DF9300D01F92CDB7DEB7EE
:1017900089836A834B8389818823D9F48A8188303D
:1017A000C0F48981282F30E08A81882F90E0220FB1
:1017B000331F220F331F220F331F820F931F855EAB
:1017C0009C4F2B81FC0120834B816A8189810E947F
:1017D000710300000F900F900F90DF91CF9108954B
:1017E000CF93DF9300D000D01F92CDB7DEB78B83AD
:1017F0006C834D838C81803408F042C08C8187706B
:101800008A838B81282F30E08A81882F90E0220FF5
:10181000331F220F331F220F331F820F931F855E4A
:101820009C4FFC01808189838D81882391F08C817C
:10183000869586958695282F30E081E090E002C05D
:10184000880F991F2A95E2F7982F8981892B898320
:1018500012C08C81869586958695282F30E081E090
:1018600090E002C0880F991F2A95E2F7982F909573
:1018700089818923898349816A818B810E94C20B76
:1018800000000F900F900F900F900F90DF91CF916D
:101890000895CF93DF9300D0CDB7DEB789836A83F5
:1018A00041E06A8189810E94F00B00000F900F9047
:1018B000DF91CF910895CF93DF9300D0CDB7DEB7FE
:1018C00089836A8340E06A8189810E94F00B00006D
:1018D0000F900F90DF91CF910895CF93DF9300D0B9
:1018E000CDB7DEB789836A836A8189810E948D02C0
:1018F00000000F900F90DF91CF910895CF93DF9369
:1019000000D0CDB7DEB70E94BE03198219821DC078
:101910001A821A82000061E089810E94750260E0EB
:1019200089810E94A20260E089810E94CF026FE05B
:1019300089810E948D0267E089810E94BA028981B3
:101940000E94500B89818F5F89838981882301F3ED
:1019500000000F900F90DF91CF910895991B79E0CF
:1019600004C0991F961708F0961B881F7A95C9F72F
:1019700080950895EE0FFF1F0024001C0BBE0790FA
:10198000F691E02D09940E94F70C08F481E0089587
:101990000E94230D88F09F5798F0B92F9927B751CF
:1019A000B0F0E1F0660F771F881F991F1AF0BA9503
:1019B000C9F714C0B13091F00E943D0DB1E0089517
:1019C0000C943D0D672F782F8827B85F39F0B93F09
:1019D000CCF3869577956795B395D9F73EF49095B6
:1019E0008095709561957F4F8F4F9F4F0895990F08
:1019F0000008550FAA0BE0E8FEEF16161706E807D9
:101A0000F907C0F012161306E407F50798F0621BF9
:101A1000730B840B950B39F40A2661F0232B242BCE
:101A2000252B21F408950A2609F4A140A6958FEFED
:101A3000811D811D089557FD9058440F551F59F081
:101A40005F3F71F04795880F97FB991F61F09F3FAB
:101A500079F087950895121613061406551FF2CFD4
:101A60004695F1DF08C0161617061806991FF1CF24
:101A700086957105610508940895E894BB2766274B
:101A80007727CB0197F908950E94F70C08F48FEFA0
:101A900008950E945C0D0C94CD0D0E94BF0D38F08E
:101AA0000E94C60D20F0952311F00C94B60D0C94F5
:101AB000BC0D11240C943E0D0E941B0D70F3959FDC
:101AC000C1F3950F50E0551F629FF001729FBB2735
:101AD000F00DB11D639FAA27F00DB11DAA1F649FD1
:101AE0006627B00DA11D661F829F2227B00DA11D84
:101AF000621F739FB00DA11D621F839FA00D611D0A
:101B0000221F749F3327A00D611D231F849F600D2A
:101B1000211D822F762F6A2F11249F5750409AF053
:101B2000F1F088234AF0EE0FFF1FBB1F661F771FDF
:101B3000881F91505040A9F79E3F510580F00C94AA
:101B4000B60D0C943E0D5F3FE4F3983ED4F38695BA
:101B500077956795B795F795E7959F5FC1F7FE2B4A
:101B6000880F911D9695879597F9089597F99F6726
:101B700080E870E060E008959FEF80EC0895002415
:101B80000A941616170618060906089500240A94E2
:101B900012161306140605060895092E0394000C68
:101BA00011F4882352F0BB0F40F4BF2B11F460FFF7
:101BB00004C06F5F7F4F8F4F9F4F0895F894FFCF02
:0E1BC000804020100804020101000000010016
:00000001FF
