:100000000C944E000C946D000C946D000C946D00DB
:100010000C946D000C946D000C946D000C946D00AC
:100020000C946D000C946D000C946D000C946D009C
:100030000C946D000C94F7000C946D000C946D0002
:100040000C946D000C946D000C946D000C946D007C
:100050000C946D000C946D000C946D000C946D006C
:100060000C946D000C946D000C946D000C946D005C
:100070000C946D000C946D000C946D000C946D004C
:100080000C946D000C946D000C946D0048064D06A8
:10009000520657065C06610666066B0611241FBEF3
:1000A000CFEFD0E4DEBFCDBF11E0A0E0B1E0E0E8EB
:1000B000FDE000E00BBF02C007900D92AE31B1072A
:1000C000D9F721E0AEE1B1E001C01D92A333B20740
:1000D000E1F70E94E4020C94BE060C940000CF935A
:1000E000DF9300D01F92CDB7DEB789837B836A830D
:1000F00089818A3031F48A819B81BC018DE00E9424
:100100006F0080EC90E0FC018081882F90E080728D
:100110009927892BB1F386EC90E02981FC0120839B
:1001200080E090E00F900F900F90DF91CF910895B5
:10013000CF93DF93CDB7DEB78AE790E02AE730E0D0
:10014000F9012081206EFC0120830000DF91CF9116
:100150000895CF93DF93CDB7DEB781E890E02BE031
:10016000FC01208388E890E02DE730E0FC0131833A
:1001700020838FE690E022E0FC01208384E890E079
:10018000FC011182108280910E0190910F01A091CB
:100190001001B091110180931F0190932001A09351
:1001A0002101B09322018FE590E02FE530E0F901C5
:1001B00020812068FC0120830000DF91CF91089509
:1001C000CF93DF93CDB7DEB781E890E0FC011082DA
:1001D0000000DF91CF910895CF93DF93CDB7DEB7C5
:1001E00081E080931E010000DF91CF9108951F925E
:1001F0000F9200905F000F92112400905B000F920D
:100200002F933F934F935F936F937F938F939F931E
:10021000AF93BF93EF93FF93CF93DF93CDB7DEB749
:1002200080911F0190912001A0912101B0912201A4
:100230000197A109B10980931F0190932001A09318
:100240002101B093220180911F0190912001A09182
:100250002101B0912201892B8A2B8B2B91F40E94D2
:10026000EC0080910E0190910F01A0911001B091CE
:10027000110180931F0190932001A0932101B0935D
:1002800022010000DF91CF91FF91EF91BF91AF91DB
:100290009F918F917F916F915F914F913F912F919E
:1002A0000F9000925B000F9000925F000F901F90E4
:1002B0001895CF93DF9300D000D0CDB7DEB7698318
:1002C0007A838B839C8389819A81AB81BC81809363
:1002D0000E0190930F01A0931001B0931101809132
:1002E0000E0190910F01A0911001B0911101809326
:1002F0001F0190932001A0932101B09322010000DF
:100300000F900F900F900F90DF91CF910895CF93A2
:10031000DF9300D000D0CDB7DEB780911C0180956F
:1003200080931C0180911C01882361F08CE790E090
:10033000FC01108288E790E0FC01808191819A8322
:1003400089830CC08CE790E021E0FC01208388E7E2
:1003500090E0FC01808191819C838B8380912701B7
:1003600090912801009719F0019741F00EC081E0AB
:1003700090E0909328018093270107C081E090E0EE
:10038000909328018093270100008091270190918C
:100390002801009719F0019751F034C01092230101
:1003A0001092240110922501109226012BC0898100
:1003B0009A81099720F481E08093230123C0109251
:1003C000230189819A81803F934020F081E08093CE
:1003D000240118C0109224018B819C81089720F47D
:1003E00081E0809325010EC0109225018B819C81B4
:1003F000803F924020F081E08093260103C010925C
:100400002601000000000F900F900F900F90DF91D9
:10041000CF910895CF93DF93CDB7DEB780912901B7
:1004200090912A018130910571F08130910520F081
:10043000069708F042C03AC081E090E090932A010C
:10044000809329013BC080912301882339F082E009
:1004500090E090932A018093290130C0809124017B
:10046000882339F083E090E090932A01809329015A
:1004700025C080912501882339F084E090E0909395
:100480002A01809329011AC080912601882339F01E
:1004900085E090E090932A01809329010FC081E0CC
:1004A00090E090932A018093290108C081E090E0B8
:1004B00090932A018093290101C0000080912901B5
:1004C00090912A018230910599F08330910538F49A
:1004D000009709F463C0019709F462C062C08430D8
:1004E000910501F18430910580F00597C9F159C05B
:1004F0008091120140E0682F80E00E94A503809166
:1005000012018F5F809312014CC08091120140E074
:10051000682F80E00E94A503809112018150809392
:1005200012013FC0809112018F5F40E0682F80E090
:100530000E94A503809112018F5F40E0682F80E048
:100540000E94A50380911201815040E0682F80E055
:100550000E94A503809113018F5F8093130121C036
:10056000809112018F5F40E0682F80E00E94A50318
:10057000809112018F5F40E0682F80E00E94A50308
:1005800080911201815040E0682F80E00E94A50315
:100590008091130181508093130103C0000001C0BA
:1005A000000080911301882F90E08C5E9E4FFC012B
:1005B000908180911201492F682F80E00E94A5034D
:1005C0000000DF91CF910895CF93DF9300D000D04A
:1005D000CDB7DEB78AE290E02FEFFC0120838BE2FB
:1005E00090E0FC0110820E9498008CE790E0FC01F2
:1005F00010826AE070E080E090E00E9459010E9461
:10060000A9000E9461041092280110922701109203
:100610002A011092290119821A821B821C820E94CF
:10062000870189819A81AB81BC818A3F9105A105AF
:10063000B10531F40E940A0219821A821B821C82BF
:1006400089819A81AB81BC810A96A11DB11D8983E4
:100650009A83AB83BC83000080911E018823E1F361
:1006600010921E01DCCFCF93DF9300D0CDB7DEB761
:100670008A83198219821AC08A81282F30E08981E1
:10068000882F90E0220F331F220F331F220F331FBA
:10069000820F931F855D9E4FFC01108240E06981AF
:1006A0008A810E942A0689818F5F898389818830A7
:1006B00018F300000F900F90DF91CF910895CF9322
:1006C000DF9300D000D0CDB7DEB78A837C836B8305
:1006D00019828A81882389F519822CC08A81282F62
:1006E00030E08981882F90E04981442F50E06B8170
:1006F0007C81460F571FFA014081220F331F220FC2
:10070000331F220F331F820F931F855D9E4FFC0105
:1007100040838981882F90E02B813C81820F931F39
:10072000FC018081482F69818A810E942A06898183
:100730008F5F89838981883088F200000F900F9045
:100740000F900F90DF91CF910895CF93DF9300D05A
:100750001F92CDB7DEB789836A834B838981882353
:10076000D9F48A818830C0F48981282F30E08A81C9
:10077000882F90E0220F331F220F331F220F331FC9
:10078000820F931F855D9E4F2B81FC0120834B813F
:100790006A8189810E942A0600000F900F900F90B5
:1007A000DF91CF910895CF93DF9300D000D01F92B7
:1007B000CDB7DEB78B836C834D838C81803408F09A
:1007C00042C08C8187708A838B81282F30E08A8198
:1007D000882F90E0220F331F220F331F220F331F69
:1007E000820F931F855D9E4FFC01808189838D81DF
:1007F000882391F08C81869586958695282F30E008
:1008000081E090E002C0880F991F2A95E2F7982FA7
:100810008981892B898312C08C81869586958695DE
:10082000282F30E081E090E002C0880F991F2A95C0
:10083000E2F7982F909589818923898349816A817C
:100840008B810E94A50300000F900F900F900F90D6
:100850000F90DF91CF910895CF93DF9300D0CDB764
:10086000DEB789836A8341E06A8189810E94D3036C
:1008700000000F900F90DF91CF910895CF93DF93F9
:1008800000D0CDB7DEB789836A8340E06A81898171
:100890000E94D30300000F900F90DF91CF91089535
:1008A000CF93DF9300D0CDB7DEB789836A836A81A7
:1008B00089810E94460500000F900F90DF91CF9133
:1008C0000895CF93DF9300D0CDB7DEB70E947706AF
:1008D000198219821DC01A821A82000061E0898182
:1008E0000E942E0560E089810E945B0560E089819D
:1008F0000E9488056FE089810E94460567E0898132
:100900000E94730589810E94330389818F5F8983E7
:100910008981882301F300000F900F90DF91CF9120
:100920000895CF93DF9300D01F92CDB7DEB78B83AE
:10093000198288E0898348C08B81282F30E0898123
:10094000882F90E0AC014150510981E090E002C055
:10095000880F991F4A95E2F7822393232981222F3A
:1009600030E02150310902C0959587952A95E2F72C
:100970008A8388E290E028E230E0F90120812E7F2E
:10098000FC0120838A81882351F088E290E028E2EC
:1009900030E0F90120812460FC01208309C088E255
:1009A00090E028E230E0F90120812B7FFC012083D8
:1009B00088E290E028E230E0F90120812160FC012A
:1009C00020838981815089838981882309F0B4CF6C
:1009D00000000F900F900F90DF91CF910895CF936B
:1009E000DF9300D000D0CDB7DEB78A836B834C8312
:1009F00019828A81882351F588E290E028E230E06C
:100A0000F90120812D7FFC0120838A8189830000E8
:100A10008B810E9491048C810E949104198209C0EB
:100A200080E00E94910480E00E94910489818F5FA0
:100A3000898399818A81981798F388E290E028E267
:100A400030E0F90120812260FC01208300000F903A
:100A50000F900F900F90DF91CF910895CF93DF9378
:100A600000D0CDB7DEB789836A838A81882319F0E5
:100A70008A81813029F44A816CE089810E94EF04E7
:100A800000000F900F90DF91CF910895CF93DF93E7
:100A900000D0CDB7DEB789836A838A81803128F49C
:100AA0004A816AE089810E94EF0400000F900F9054
:100AB000DF91CF910895CF93DF9300D0CDB7DEB70C
:100AC00089836A838A81882319F08A81813029F495
:100AD0004A816FE089810E94EF0400000F900F901F
:100AE000DF91CF910895CF93DF9300D0CDB7DEB7DC
:100AF00089836A838A81883028F44A816BE08981FE
:100B00000E94EF0400000F900F90DF91CF910895A5
:100B1000CF93DF9300D0CDB7DEB789836A834A8154
:100B200069E089810E94EF0400000F900F90DF912F
:100B3000CF910895CF93DF9300D0CDB7DEB78983EF
:100B40006A834A8161E089810E94EF0400000F906E
:100B50000F90DF91CF910895CF93DF9300D0CDB761
:100B6000DEB789836A834A8162E089810E94EF044B
:100B700000000F900F90DF91CF910895CF93DF93F6
:100B800000D0CDB7DEB789836A834A8163E089816B
:100B90000E94EF0400000F900F90DF91CF91089515
:100BA000CF93DF9300D0CDB7DEB789836A834A81C4
:100BB00064E089810E94EF0400000F900F90DF91A4
:100BC000CF910895CF93DF9300D0CDB7DEB789835F
:100BD0006A834A8165E089810E94EF0400000F90DA
:100BE0000F90DF91CF910895CF93DF9300D0CDB7D1
:100BF000DEB789836A834A8166E089810E94EF04B7
:100C000000000F900F90DF91CF910895CF93DF9365
:100C100000D0CDB7DEB789836A834A8167E08981D6
:100C20000E94EF0400000F900F90DF91CF91089584
:100C3000CF93DF9300D0CDB7DEB789836A834A8133
:100C400068E089810E94EF0400000F900F90DF910F
:100C5000CF910895CF93DF9300D01F92CDB7DEB729
:100C600089836A834B838A81882F90E0092E000C48
:100C7000AA0BBB0B40E050E027E030E0841B950B53
:100C80002817390768F18A5B9F4FFC010C94B50661
:100C90006B8189810E949A0523C06B8189810E94A2
:100CA000AC051EC06B8189810E94BE0519C06B8195
:100CB00089810E94D00514C06B8189810E94E20560
:100CC0000FC06B8189810E94F4050AC06B81898104
:100CD0000E94060605C06B8189810E9418060000EB
:100CE00000000F900F900F90DF91CF910895CF9358
:100CF000DF93CDB7DEB787E290E027E230E0F9017D
:100D000020812460FC01208387E290E027E230E02C
:100D1000F90120812160FC01208387E290E027E235
:100D200030E0F90120812260FC01208388E290E01C
:100D300028E230E0F90120812B7FFC01208388E24A
:100D400090E028E230E0F90120812E7FFC01208331
:100D500088E290E028E230E0F90120812D7FFC015B
:100D600020830000DF91CF910895EE0FFF1F002434
:100D7000001C0BBE0790F691E02D0994F894FFCF6C
:100D800000000002000000006F00000000000100F1
:0E0D900000000404804020100804020101004D
:00000001FF
